:020000020000FC
:040000000C9422003A
:04000C000C947A00D6
:100040000C949A000FEF0DBF18E01EBF789490E853
:1000500090E89093610091E0909361000FE007B900
:10006000289A2098299A21982A9A2C9A0FEF5AB9FF
:1000700001E00093680003E000936B001A9A30E0FF
:1000800040E050E060E090E00E94700048B95A30D3
:10009000E9F07233F1F00E9462001A9A1C9AF1E0C2
:1000A000EAE4E50F94919BB90E9462001A9A1C9AA7
:1000B000F1E0EAE4E60F94919BB90E946200663099
:1000C00059F0E4CF3FEF3A95F1F7089550E063958A
:1000D000DDCF539570E0DACF0E94620050E060E01F
:1000E000A0E0A4BDA5E0A5BDA4E6A6BDA1E0A093A7
:1000F0006E0008950F930FB70F9323B117ED1A9564
:10010000F1F7189BFBCF20FD0AC04395403169F4FD
:100110004FE00BC017ED1A95F1F7199BFBCF21FDAE
:1001200004C04A954F3F09F440E0D89A0F910FBFA1
:100130000F9118951F931FB71F9304E606BDA89A49
:1001400073951F911FBF1F9118957E0CB69ECCDA38
:0A015000FA0EFECEEEF872BCF2E2E9
:00000001FF
